S00E000073656E6465722E7372656395
S113000071C000001AC200008CC000008AC0000049
S1130010D2C0000086C0000084C0000082C000007E
S113002080C000007EC000007CC000007AC00000D8
S113003078C0000076C0000074C0000072C00000E8
S113004070C000006EC000006CC000006AC00000F8
S113005097C0000066C0000064C0000062C00000D9
S113006060C000005EC000005CC000005AC0000018
S113007058C0000056C0000054C0000052C0000028
S113008050C000004EC000004CC000004AC0000038
S113009048C0000046C0000044C0000042C0000048
S11300A040C000003EC000003CC000003AC0000058
S11300B038C0000036C0000034C0000032C0000068
S11300C030C000002EC000002CC000002AC0000078
S11300D028C0000026C0000024C0000022C0000088
S11300E020C0000011241FBECFEFD1E2DEBFCDBF80
S11300F000E00CBF12E0A0E0B2E0E8E3F6E000E0CC
S11301000BBF02C007900D92A233B107D9F722E0CA
S1130110A2E3B2E001C01D92AE33B207E1F702D010
S113012089C26ECF48E060E875E280E090E0D3D108
S1130130BBD0A7D08BD0B1D0789457D08C0152D0FB
S1130140EC0180910002909101029093350280931A
S113015034024091340250913502BE01C8019FD14E
S11301609093330280933202809136029091370249
S1130170019739F73DD01092370210923602E1CF41
S11301801F920F920FB60F9211248F939F93809119
S11301900002909101020196909301028093000263
S11301A080910002909101029F918F910F900FBE58
S11301B00F901F9018951F920F920FB60F92112453
S11301C08F939F938091360290913702019690937A
S11301D03702809336029F918F910F900FBE0F903C
S11301E01F90189580E090E008958FE190E00895C5
S11301F0CF93DF93CDB7DEB760970FB6F894DEBF29
S11302000FBECDBF87E090E062D088E0E2E0F2E08C
S1130210DE01119601900D928A95E1F788E0EAE0FB
S1130220F2E0DE01199601900D928A95E1F7BE0184
S1130230675F7F4FCE01019659D060960FB6F89450
S1130240DEBF0FBECDBFDF91CF9108951092800025
S113025084E0809381008DED9BE0909385008093F2
S1130260840010929500109294001092900085E002
S11302708093910083E88093A00081E08093A100A3
S1130280089583EA809369008DB38D608DBBEFE69A
S1130290F0E080818160808308958FEF8093010175
S11302A0109202011AB808958FEF84B915B8089511
S11302B0883060F443B121E030E0B90102C0660F38
S11302C0771F8A95E2F7CB01842B85B9089588308E
S11302D060F443B121E030E0B90102C0660F771F3A
S11302E08A95E2F7CB01842785B90895CF92DF92EE
S11302F0EF92FF920F931F93CF93DF93CDB7DEB7A7
S113030064970FB6F894DEBF0FBECDBF082F192F28
S1130310E62EF72E86E292E036D184E1E2E1F2E0C5
S1130320DE01119601900D928A95E1F7802F912FAD
S1130330AE014B5F5F4FFE013D96DC012D91CD0177
S1130340DA012D93AD01EA17FB07B9F7AE2DBF2DE6
S11303509E012B5E3F4F8D9181932E173F07D9F756
S113036010923D0210923C0280913A0290913B021D
S1130370449708F04FC00F2EF8EACF2ED12CF02D61
S1130380E12C6894FF24F1F882B1867C82B9209133
S113039038023091390280913C0290913D02281735
S11303A03907A9F380913C0290913D029093390260
S11303B080933802E0913A02F0913B0281E090E0B0
S11303C08C0F9D1FE80FF91F1081113381F484E015
S11303D090E06EDFD6011196FC92EE92EFE3FCE919
S11303E03197F1F700C0000011961C921E92812FE4
S11303F090E0C1D080913A0290913B020196909393
S11304003B0280933A0280913A0290913B024497D6
S113041008F4BACF10923B0210923A0264960FB6D7
S1130420F894DEBF0FBECDBFDF91CF911F910F9126
S1130430FF90EF90DF90CF9008951F920F920FB628
S11304400F9211240BB60F922F933F934F935F9308
S11304506F937F938F939F93AF93BF93EF93FF9388
S113046082E090E034DF80913C0290913D0201965D
S113047090933D0280933C02FF91EF91BF91AF9125
S11304809F918F917F916F915F914F913F912F91A8
S11304900F900BBE0F900FBE0F901F9018959C01EC
S11304A0FB01CA016CE370E07CD04CE34E9FC001B9
S11304B04F9F900D1124820F931F9C012E513109DF
S11304C012F420563A4F81E090E02617370711F0D6
S11304D080E090E008950F931F938B019C010C52D0
S11304E0114021093109053D104C2140310508F026
S11304F03FC02BEF240F2430D8F520E22093C00016
S1130500453019F41092C2000CC0463021F422E0A8
S11305102093C2000BC0473021F424E02093C20092
S113052005C0483019F426E02093C20028E1209346
S1130530C100DC01CB01880F991FAA1FBB1F880FC4
S1130540991FAA1FBB1F9C01AD01220F331F441F1B
S1130550551F220F331F441F551F60E074E284EFC0
S113056090E032D0215031093093C5002093C4006B
S11305701F910F910895E0ECF0E0908195FFFDCF7D
S11305808093C6000895CF93DF93EC01888188237C
S113059029F02196F0DF89918111FCCFDF91CF9171
S11305A0089597FB072E16F4009406D077FD08D023
S11305B02DD007FC05D03EF4909581959F4F08956A
S11305C0709561957F4F0895A1E21A2EAA1BBB1B5B
S11305D0FD010DC0AA1FBB1FEE1FFF1FA217B3070B
S11305E0E407F50720F0A21BB30BE40BF50B661F21
S11305F0771F881F991F1A9469F7609570958095E5
S113060090959B01AC01BD01CF010895AA1BBB1BB2
S113061051E107C0AA1FBB1FA617B70710F0A61BFE
S1130620B70B881F991F5A95A9F780959095BC011F
S10B0630CD010895F894FFCFF9
S11306380A003031303131303031303130313031FD
S1130648313031313130303030303030303030309A
S11306583030303030300D73656E6420783130209E
S105066820006C
S9030000FC
