S00E000073656E6465722E7372656395
S113000071C000000CC20000FCC000008AC00000E7
S113001088C0000086C0000084C0000082C00000C8
S113002080C000007EC000007CC000007AC00000D8
S113003078C0000076C0000074C0000072C00000E8
S113004070C000006EC000006CC000006AC00000F8
S1130050BDC0000066C0000064C0000062C00000B3
S113006060C000005EC000005CC000005AC0000018
S113007058C0000056C0000054C0000052C0000028
S113008050C000004EC000004CC000004AC0000038
S113009048C0000046C0000044C0000042C0000048
S11300A040C000003EC000003CC000003AC0000058
S11300B038C0000036C0000034C0000032C0000068
S11300C030C000002EC000002CC000002AC0000078
S11300D028C0000026C0000024C0000022C0000088
S11300E020C0000011241FBECFEFD1E2DEBFCDBF80
S11300F000E00CBF12E0A0E0B2E0E6EDF6E000E0C4
S11301000BBF02C007900D92A832B107D9F722E0C5
S1130110A8E2B2E001C01D92A233B207E1F702D017
S1130120D8C26ECF48E060E875E280E090E01ED26D
S11301300BD1F9D0E3D003D1789497D08C0192D02D
S11301407C01C0912E02D0912F0283E001D1AE0137
S1130150B701C801EFD1019751F493D1D0932B0289
S1130160C0932A0210922D0210922C0222C0809178
S11301702A0290912B02CC968C179D07D1F4809182
S11301802C0290912D020697A4F4A9D180912A0201
S113019090912B02885F984F90932B0280932A02B0
S11301A080912C0290912D02019690932D028093C0
S11301B02C028091280290912902892B09F4BDCF49
S11301C057D01092290210922802B7CF1F920F9293
S11301D00FB60F9211248F939F9380912E029091CA
S11301E02F02019690932F0280932E0280912E026B
S11301F090912F029F918F910F900FBE0F901F909F
S113020018951F920F920FB60F9211240BB60F92EE
S11302102F933F934F935F936F937F938F939F930A
S1130220AF93BF93EF93FF9380912802909129029B
S11302300196909329028093280282E089D0FF914D
S1130240EF91BF91AF919F918F917F916F915F914A
S11302504F913F912F910F900BBE0F900FBE0F90B7
S11302601F90189580E090E008958FE190E0089544
S1130270CF93DF93CDB7DEB768970FB6F894DEBFA0
S11302800FBECDBF87E090E063D088E0E0E0F2E00D
S1130290DE01119601900D928A95E1F788E0E8E07D
S11302A0F2E0DE01199601900D928A95E1F788E05B
S11302B0E0E0F2E0DE01519601900D928A95E1F7BB
S11302C0BE01675F7F4FCE01019651D02FEF89E6C3
S11302D098E1215080409040E1F700C00000BE0149
S11302E06F5E7F4FCE01019642D068960FB6F894A8
S11302F0DEBF0FBECDBFDF91CF9108951092800075
S113030084E0809381008DED9BE090938500809341
S1130310840010929500109294001092900085E051
S11303208093910008958FE2809369008DB3876074
S11303308DBBEFE6F0E080818160808308958FEFCC
S113034081B912B81AB808958FEF84B915B8089511
S1130350883060F443B121E030E0B90102C0660F97
S1130360771F8A95E2F7CB01842785B90895CF9248
S1130370DF92EF92FF920F931F93CF93DF93CDB74A
S1130380DEB760970FB6F894DEBF0FBECDBF7B011A
S11303908E010F5F1F4F20E1F80111922A95E9F7B2
S11303A0BC01C8018FD1B701C80181D110923102BB
S11303B01092300278016E01F1E1CF0ED11C00E001
S11303C010E092B1967C92B92091300230913102C2
S11303D002171307C9F30091300210913102F7019B
S11303E081917F01813011F4109A05C0811103C0FD
S11303F092B1967C92B990E009D1EC14FD0409F70E
S113040060960FB6F894DEBF0FBECDBFDF91CF91DB
S11304101F910F91FF90EF90DF90CF9008951F925E
S11304200F920FB60F9211240BB60F922F933F9396
S11304304F935F936F937F938F939F93AF93BF93E8
S1130440EF93FF9382E090E083DF809130029091FC
S1130450310201969093310280933002FF91EF9123
S1130460BF91AF919F918F917F916F915F914F91C8
S11304703F912F910F900BBE0F900FBE0F901F90C6
S11304801895CF93DF93CDB7DEB760970FB6F89486
S1130490DEBF0FBECDBF85E090E05ADF88E0E0E12B
S11304A0F2E0DE01119601900D928A95E1F788E061
S11304B0E0E1F2E0DE01199601900D928A95E1F7F0
S11304C0BE016F5F7F4FCE01099651DF60960FB674
S11304D0F894DEBF0FBECDBFDF91CF910895CF93C7
S11304E0DF93CDB7DEB760970FB6F894DEBF0FBECB
S11304F0CDBF88E0E0E2F2E0DE01119601900D92BA
S11305008A95E1F788E0E0E1F2E0DE0119960190D6
S11305100D928A95E1F7BE016F5F7F4FCE01099678
S113052026DF60960FB6F894DEBF0FBECDBFDF9115
S1130530CF9108959C01FB01CA016CE370E06ED079
S11305404CE34E9FC0014F9F900D1124820F931FC7
S11305509C012E51310912F420563A4F81E090E06B
S11305602617370711F080E090E008950F931F934A
S11305708B019C010C52114021093109053D104C9D
S11305802140310508F03FC02BEF240F2430D8F56B
S113059020E22093C000453019F41092C2000CC030
S11305A0463021F422E02093C2000BC0473021F4EE
S11305B024E02093C20005C0483019F426E02093BB
S11305C0C20028E12093C100DC01CB01880F991FF0
S11305D0AA1FBB1F880F991FAA1FBB1F9C01AD0137
S11305E0220F331F441F551F220F331F441F551F53
S11305F060E074E284EF90E024D02150310930931C
S1130600C5002093C4001F910F910895E0ECF0E021
S1130610908195FFFDCF8093C600089597FB072E28
S113062016F4009406D077FD08D02DD007FC05D031
S11306303EF4909581959F4F0895709561957F4FF5
S11306400895A1E21A2EAA1BBB1BFD010DC0AA1F0F
S1130650BB1FEE1FFF1FA217B307E407F50720F027
S1130660A21BB30BE40BF50B661F771F881F991FA2
S11306701A9469F760957095809590959B01AC01EB
S1130680BD01CF010895AA1BBB1B51E107C0AA1FDE
S1130690BB1FA617B70710F0A61BB70B881F991F1F
S11306A05A95A9F780959095BC01CD010895FB0159
S11306B0DC010D900020E9F7119701900D920020C4
S11306C0E1F70895FB01DC0101900D920020E1F7B0
S10906D00895F894FFCF29
S11306D63031303131303031303130313031313008
S11306E630313031303131303031303131303031F8
S10B06F6303130313130313074
S9030000FC
