S00E000073656E6465722E7372656395
S113000071C000008EC000008CC00000B4C00000AD
S113001088C0000086C0000084C0000082C00000C8
S113002080C000007EC000007CC000007AC00000D8
S113003078C0000076C0000074C0000072C00000E8
S113004070C000006EC000006CC000006AC00000F8
S113005077C0000066C0000064C0000062C00000F9
S113006060C000005EC000005CC000005AC0000018
S113007058C0000056C0000054C0000052C0000028
S113008050C000004EC000004CC000004AC0000038
S113009048C0000046C0000044C0000042C0000048
S11300A040C000003EC000003CC000003AC0000058
S11300B038C0000036C0000034C0000032C0000068
S11300C030C000002EC000002CC000002AC0000078
S11300D028C0000026C0000024C0000022C0000088
S11300E020C0000011241FBECFEFD1E2DEBFCDBF80
S11300F000E00CBF12E0A0E0B2E0EEE7F3E000E0C5
S11301000BBF02C007900D92A231B107D9F722E0CC
S1130110A2E1B2E001C01D92A631B207E1F702D01C
S11301202CC16ECFBCD0A5D090D0B4D0789480919F
S113013012029091130280FDFACF84E0B4D0F7CF7D
S11301401F920F920FB60F9211248F939F93809159
S1130150120290911302019690931302809312025B
S113016080911202909113029F918F910F900FBE74
S11301700F901F9018951F920F920FB60F92112493
S11301800BB60F922F933F934F935F936F937F938D
S11301908F939F93AF93BF93EF93FF9313D0FF91EC
S11301A0EF91BF91AF919F918F917F916F915F91EB
S11301B04F913F912F910F900BBE0F900FBE0F9058
S11301C01F901895CF93DF93CDB7DEB76B970FB61B
S11301D0F894DEBF0FBECDBF89E0E0E0F2E0DE01BF
S11301E0119601900D928A95E1F789E0E9E0F2E039
S11301F0DE011A9601900D928A95E1F789E0E0E01C
S1130200F2E0DE01539601900D928A95E1F7BE016A
S1130210665F7F4FCE01019655D02FEF8FE493ECAC
S1130220215080409040E1F700C00000BE016D5EA7
S11302307F4FCE01019646D06B960FB6F894DEBF81
S11302400FBECDBFDF91CF91089588EF92EC9093CC
S11302508500809384001092800085E08093810063
S11302601092950010929400109290008093910047
S11302700895EA9AE9E6F0E080E2808383E08083EF
S1130280E89A8083EB9A88E08093710081E0809300
S11302906F0008958FEF81B912B81AB808958FEFDF
S11302A084B915B80895883060F443B121E030E092
S11302B0B90102C0660F771F8A95E2F7CB01842744
S11302C085B90895EF92FF920F931F93CF93DF9315
S11302D0CDB7DEB762970FB6F894DEBF0FBECDBFC1
S11302E07B018E010F5F1F4F22E1F80111922A95C5
S11302F0E9F7BC01C8013AD0B701C8012CD0F80114
S113030020E030E092B1967C92B940911402509171
S1130310150242175307E9F32F5F3F4F4217530764
S113032009F015D08191813009F4109A9A01403175
S1130330510541F762960FB6F894DEBF0FBECDBFEC
S1130340DF91CF911F910F91FF90EF90089581E07D
S113035090E0F89412C0FB01DC010D900020E9F755
S1130360119701900D920020E1F70895FB01DC0143
S111037001900D920020E1F70895F894FFCF5C
S113037E3031303131303031303031303130313163
S105038E303009
S9030000FC
