S00E000073656E6465722E7372656395
S113000071C0000078C200008CC000008AC00000EB
S113001044C1000086C0000084C0000082C000000B
S113002080C000007EC000007CC000007AC00000D8
S113003078C0000076C0000074C0000072C00000E8
S113004070C000006EC000006CC000006AC00000F8
S113005009C1000066C0000064C0000062C0000066
S113006060C000005EC000005CC000005AC0000018
S113007058C0000056C0000054C0000052C0000028
S113008050C000004EC000004CC000004AC0000038
S113009048C0000046C0000044C0000042C0000048
S11300A040C000003EC000003CC000003AC0000058
S11300B038C0000036C0000034C0000032C0000068
S11300C030C000002EC000002CC000002AC0000078
S11300D028C0000026C0000024C0000022C0000088
S11300E020C0000011241FBECFEFD1E2DEBFCDBF80
S11300F000E00CBF12E0A0E0B2E0EEE0F8E000E0C7
S11301000BBF02C007900D92A039B107D9F722E0C6
S1130110A0E9B2E001C01D92A03AB207E1F702D013
S113012074C36ECF48E060E875E280E090E0BED230
S11301302FD119D1FDD023D17894C9D08C01C4D04A
S1130140EC01E12CF12C0F2EFAE0AF2EB12CF02DA6
S1130150C12CD12C88248394912C809100029091FD
S113016001029093930280939202409192025091E3
S11301709302BE01C8017ED29093910280939002B3
S11301808091900290919102019731F5E114F1046C
S113019019F586E492E0E2D2E0D18FE492E0DED277
S11301A08091920290919302909397028093960289
S11301B0D0929902C09298028091960290919702EF
S11301C02091920230919302845D9E4F821793078F
S11301D0B1F0E82CF92C39C08091960290919702E5
S11301E02091920230919302845D9E4F821793076F
S11301F009F580919802909199020697DCF487E5BD
S113020092E0ACD285E592E0A9D206D28091960222
S113021090919702885F984F9093970280939602EB
S113022080919802909199020196909399028093FB
S1130230980276018091980290919902069729F488
S1130240BDD1B0929902A0929802809194029091AB
S11302509502019709F081CF3DD0D0929502C092CA
S113026094027BCF1F920F920FB60F9211248F939B
S11302709F93809100029091010201969093010254
S11302808093000280910002909101029F918F91CE
S11302900F900FBE0F901F9018951F920F920FB6DC
S11302A00F9211248F939F938091940290919502C1
S11302B0019690939502809394029F918F910F9051
S11302C00FBE0F901F90189580E090E008958FE185
S11302D090E00895CF93DF93CDB7DEB760970FB664
S11302E0F894DEBF0FBECDBF87E090E064D088E015
S11302F0E2E0F2E0DE01119601900D928A95E1F7B9
S113030088E0EAE0F2E0DE01199601900D928A9508
S1130310E1F7BE01675F7F4FCE0101965BD0609627
S11303200FB6F894DEBF0FBECDBFDF91CF91089515
S11303301092800084E0809381008DED9BE0909387
S1130340850080938400109295001092940010927E
S1130350900085E08093910083E88093A00081E081
S11303608093A100089583EA809369008DB38D6022
S11303708DBBEFE6F0E080818160808308958FEF8C
S1130380809301011092020181B912B81AB808953C
S11303908FEF84B915B80895883060F443B121E033
S11303A030E0B90102C0660F771F8A95E2F7CB01EE
S11303B0842B85B90895883060F443B121E030E09E
S11303C0B90102C0660F771F8A95E2F7CB01842733
S11303D085B90895EF92FF920F931F93CF93DF9304
S11303E0CDB7DEB764970FB6F894DEBF0FBECDBFAE
S11303F0082F192FE62EF72E80E692E0AFD184E184
S1130400E2E1F2E0DE01119601900D928A95E1F7A6
S1130410802F912FAE014B5F5F4FFE013D96DC01B3
S11304202D91CD01DA012D93AD01AE17BF07B9F7B8
S1130430AE2DBF2D9E012B5E3F4F8D9181932E17C4
S11304403F07D9F710929F0210929E0280919C025E
S113045090919D02449708F03DC082B1867C82B998
S113046020919A0230919B0280919E0290919F026A
S113047028173907A9F380919E0290919F029093C7
S11304809B0280939A02E0919C02F0919D0281E08C
S113049090E08C0F9D1FE80FF91F1081113329F490
S11304A084E090E079DF109A03C0103309F41098C7
S11304B0812F90E04BD180919C0290919D020196F6
S11304C090939D0280939C0280919C0290919D0246
S11304D0449718F210929D0210929C0264960FB6F3
S11304E0F894DEBF0FBECDBFDF91CF911F910F9166
S11304F0FF90EF9008951F920F920FB60F92112460
S11305000BB60F922F933F934F935F936F937F9309
S11305108F939F93AF93BF93EF93FF9382E090E009
S11305204ADF80919E0290919F02019690939F02D0
S113053080939E02FF91EF91BF91AF919F918F9114
S11305407F916F915F914F913F912F910F900BBECF
S11305500F900FBE0F901F901895CF93DF93CDB7D8
S1130560DEB760970FB6F894DEBF0FBECDBF85E04F
S113057090E021DF8CE692E0F1D088E0E6E2F2E060
S1130580DE01119601900D928A95E1F788E0E6E28A
S1130590F2E0DE01199601900D928A95E1F7BE0111
S11305A06F5F7F4FCE01099615DF60960FB6F89402
S11305B0DEBF0FBECDBFDF91CF910895CF93DF9300
S11305C0CDB7DEB760970FB6F894DEBF0FBECDBFD0
S11305D087E792E0C3D088E0EEE2F2E0DE01119614
S11305E001900D928A95E1F788E0E6E2F2E0DE01FF
S11305F0199601900D928A95E1F7BE016F5F7F4FC6
S1130600CE010996E7DE60960FB6F894DEBF0FBE02
S1130610CDBFDF91CF910895CF93DF93CDB7DEB7F0
S113062060970FB6F894DEBF0FBECDBF81E892E0AD
S113063095D088E0E6E3F2E0DE01119601900D9298
S11306408A95E1F788E0EEE3F2E0DE011996019085
S11306500D928A95E1F7BE016F5F7F4FCE01099637
S1130660B9DE60960FB6F894DEBF0FBECDBFDF9142
S1130670CF9108959C01FB01CA016CE370E07CD02A
S11306804CE34E9FC0014F9F900D1124820F931F86
S11306909C012E51310912F420563A4F81E090E02A
S11306A02617370711F080E090E008950F931F9309
S11306B08B019C010C52114021093109053D104C5C
S11306C02140310508F03FC02BEF240F2430D8F52A
S11306D020E22093C000453019F41092C2000CC0EF
S11306E0463021F422E02093C2000BC0473021F4AD
S11306F024E02093C20005C0483019F426E020937A
S1130700C20028E12093C100DC01CB01880F991FAE
S1130710AA1FBB1F880F991FAA1FBB1F9C01AD01F5
S1130720220F331F441F551F220F331F441F551F11
S113073060E074E284EF90E032D0215031093093CC
S1130740C5002093C4001F910F910895E0ECF0E0E0
S1130750908195FFFDCF8093C6000895CF93DF93DA
S1130760EC018881882329F02196F0DF8991811199
S1130770FCCFDF91CF91089597FB072E16F40094D8
S113078006D077FD08D02DD007FC05D03EF4909517
S113079081959F4F0895709561957F4F0895A1E2CB
S11307A01A2EAA1BBB1BFD010DC0AA1FBB1FEE1FE7
S11307B0FF1FA217B307E407F50720F0A21BB30B32
S11307C0E40BF50B661F771F881F991F1A9469F7AE
S11307D060957095809590959B01AC01BD01CF010A
S11307E00895AA1BBB1B51E107C0AA1FBB1FA61774
S11307F0B70710F0A61BB70B881F991F5A95A9F7C6
S111080080959095BC01CD010895F894FFCF2A
S113080E0A00303130313130303130313031303125
S113081E31303131313030303030303030303030C2
S113082E30303030303030313031303131303031B1
S113083E3031313030313031303131303130483186
S113084E30313031314874616E646C79730D0069E6
S113085E206D61696E0D00696E637265617365006A
S113086E0D73656E64207831302020005461656EFE
S113087E64206C79730D00536C756B206C79730D59
S113088E00696E637265617365206C79730D000087
S9030000FC
