:1000000071C00000E9C000008CC000008AC0000080
:1000100088C0000086C0000084C0000082C00000CC
:1000200080C000007EC000007CC000007AC00000DC
:1000300078C0000076C0000074C0000072C00000EC
:1000400070C000006EC000006CC000006AC00000FC
:1000500068C0000066C0000064C0000062C000000C
:1000600060C000005EC000005CC000005AC000001C
:1000700058C0000056C0000054C0000052C000002C
:1000800050C000004EC000004CC000004AC000003C
:1000900048C0000046C0000044C0000042C000004C
:1000A00040C000003EC000003CC000003AC000005C
:1000B00038C0000036C0000034C0000032C000006C
:1000C00030C000002EC000002CC000002AC000007C
:1000D00028C0000026C0000024C0000022C000008C
:1000E00020C0000011241FBECFEFD1E2DEBFCDBF84
:1000F00000E00CBF12E0A0E0B2E0ECE4F3E000E0CE
:100100000BBF02C007900D92A032B107D9F722E0D1
:10011000A0E2B2E001C01D92A633B207E1F72AD0F7
:1001200013C16ECF12161306E4F4FC01E40FF51FA1
:10013000F081DB01EC91FE1317C04F5F5F4FDC01D4
:10014000A40FB51FFB013196260F371F04C09D91E8
:10015000819198130CC0E217F307C9F781E090E092
:10016000089581E090E0089580E090E0089580E0B7
:1001700090E00895C7D0B8D0C2D078940F2EF8E898
:10018000EF2EF12CF02D0F2EF8ECCF2ED12CF02DE0
:1001900028E030E04CE050E067E172E080E292E07D
:1001A000C1DF8C0128E030E04CE050E06EE072E00E
:1001B00080E292E0B7DFEC010130110529F487E01D
:1001C000A5D0F701D182C082219711F787E0ADD089
:1001D000F70111821082DCCF1F920F920FB60F929F
:1001E00011240BB60F922F933F934F935F936F930E
:1001F0007F938F939F93AF93BF93EF93FF9380B1C0
:10020000813041F4E0913402F0913502E05EFD4F1F
:1002100081E3808380B1811108C0E0913402F091C4
:100220003502E05EFD4F80E380838091340290913F
:1002300035020196909335028093340224E030E039
:1002400040E050E060E072E080E292E06BDF019716
:10025000C9F08091340290913502049799F4E0E25C
:10026000F2E08181808382818183838182838481A2
:1002700083838091340290913502019790933502E7
:100280008093340280913402909135020B9779F477
:1002900028E030E044E050E065E072E080E292E087
:1002A00041DF892B21F410923502109234028091A3
:1002B000340290913502449720F01092350210924A
:1002C0003402FF91EF91BF91AF919F918F917F91F8
:1002D0006F915F914F913F912F910F900BBE0F90B7
:1002E0000FBE0F901F901895E89A83E080936900E5
:1002F00083E88093800081E080938100089511B8A5
:1003000010B808958FEF84B915B80895883060F457
:1003100043B121E030E0B90102C0660F771F8A9532
:10032000E2F7CB01842B85B90895883060F443B19E
:100330002EEF3FEFB90102C0660F771F8A95E2F7F3
:0C034000CB01842385B90895F894FFCF09
:10034C0031313130003031303131303031003130F9
:10035C0030313130313000303131303130313000EA
:00000001FF
