:1000000071C00000FBC000008CC000008AC000006E
:1000100088C0000086C0000084C0000082C00000CC
:1000200080C000007EC000007CC000007AC00000DC
:1000300078C0000076C0000074C0000072C00000EC
:1000400070C000006EC000006CC000006AC00000FC
:1000500068C0000066C0000064C0000062C000000C
:1000600060C000005EC000005CC000005AC000001C
:1000700058C0000056C0000054C0000052C000002C
:1000800050C000004EC000004CC000004AC000003C
:1000900048C0000046C0000044C0000042C000004C
:1000A00040C000003EC000003CC000003AC000005C
:1000B00038C0000036C0000034C0000032C000006C
:1000C00030C000002EC000002CC000002AC000007C
:1000D00028C0000026C0000024C0000022C000008C
:1000E00020C0000011241FBECFEFD1E2DEBFCDBF84
:1000F00000E00CBF12E0A0E0B2E0E4E7F3E000E0D3
:100100000BBF02C007900D92AE33B107D9F722E0C2
:10011000AEE3B2E001C01D92A034B207E1F72AD0ED
:1001200027C16ECF12161306E4F4FC01E40FF51F8D
:10013000F081DB01EC91FE1317C04F5F5F4FDC01D4
:10014000A40FB51FFB013196260F371F04C09D91E8
:10015000819198130CC0E217F307C9F781E090E092
:10016000089581E090E0089580E090E0089580E0B7
:1001700090E00895DBD0CCD0D6D078940F2EF8E85C
:10018000CF2ED12CF02D0F2EF8ECAF2EB12CF02D60
:1001900028E030E04CE050E060E272E089E292E07A
:1001A000C1DF7C0128E030E04CE050E067E172E024
:1001B00089E292E0B7DFEC0128E030E04CE050E06B
:1001C0006EE072E089E292E0ADDF8C01EA94EF2804
:1001D00029F487E0AFD0F601B182A0820130110589
:1001E00039F4F601808191818C599F4F91838083EE
:1001F000219771F6F60111821082CACF1F920F92D9
:100200000FB60F9211240BB60F922F933F934F937B
:100210005F936F937F938F939F93AF93BF93EF936E
:10022000FF9384E096D080B1813041F4E0913E02AA
:10023000F0913F02E75DFD4F81E3808380B1811142
:1002400008C0E0913E02F0913F02E75DFD4F80E380
:10025000808380913E0290913F02019690933F02ED
:1002600080933E0224E030E040E050E060E072E045
:1002700089E292E057DF0197C9F080913E029091A8
:100280003F02049799F4E9E2F2E081818083828160
:100290008183838182838481838380913E029091D4
:1002A0003F02019790933F0280933E0280913E026D
:1002B00090913F020B9779F428E030E044E050E061
:1002C00065E072E089E292E02DDF892B21F4109243
:1002D0003F0210923E0280913E0290913F0244976D
:1002E00020F010923F0210923E02FF91EF91BF91D9
:1002F000AF919F918F917F916F915F914F913F91BE
:100300002F910F900BBE0F900FBE0F901F9018955E
:10031000E89A83E08093690083E88093800081E01D
:1003200080938100089511B810B808958FEF84B9B3
:1003300015B80895883060F443B121E030E0B90188
:1003400002C0660F771F8A95E2F7CB01842B85B92F
:100350000895883060F443B121E030E0B90102C073
:10036000660F771F8A95E2F7CB01842785B9089538
:04037000F894FFCF2F
:1003740031313130003031303130313130003031D1
:1003840030313130313000313030313130313000C2
:100394003031313031303130003131313030313081
:0E03A4003130313130303131303130313000D4
:00000001FF
